:020000040802f0
:100000000000022039020208000000000000000089
:1000100000000000000000000000000000000000e0
:1000200000000000000000000000000000000000d0
:1000300000000000000000000000000000000000c0
:1000400000000000000000000000000000000000b0
:1000500000000000000000000000000000000000a0
:100060000000000000000000000000000000000090
:100070000000000000000000000000000000000080
:100080000000000000000000000000000000000070
:100090000000000000000000000000000000000060
:1000a0000000000000000000000000000000000050
:1000b0000000000000000000000000000000000040
:1000c0000000000000000000000000000000000030
:1000d0000000000000000000000000000000000020
:1000e0000000000000000000000000000000000010
:1000f0000000000000000000000000000000000000
:1001000000000000000000000000000000000000ef
:1001100000000000000000000000000000000000df
:1001200000000000000000000000000000000000cf
:1001300000000000000000000000000000000000bf
:1001400000000000000000000000000000000000af
:10015000000000000000000000000000000000009f
:10016000000000000000000000000000000000008f
:10017000000000000000000000000000000000007f
:10018000000000000000020834a8050800001f0c51
:10019000060004010402cf0000000000e04f030845
:1001a0005453030844530308545203085850030897
:1001b00070b50025054e064ca41ba408ac4200d126
:1001c00070bd56f8043b98470135f7e7f4a50508dc
:1001d000f8a50508014b1860704700bf34440120a2
:1001e0000048704798a2050808b5024b1b685b6a77
:1001f000019308bda001060809480a4908b58842cc
:1002000005d0094a824202d0121a0ef0c2fb0748fa
:10021000074a0021121a0ef0cafb064808bd00bfab
:100220000044012008a605080446012004460120d8
:10023000fd46012000440120fff7deff014b1b6853
:10024000184700bf0400060808b5024b1b68db68ae
:10025000019308bd9c010608407803280dd8431e71
:10026000022b14d8dfe803f014141400052b09d86e
:10027000dfe803f00e0e0e0e0e0ea0f14003dab210
:10028000052af3d910f0800f08bf802070470020a6
:10029000704702680146107800f00f000c2802d861
:1002a00001320a6070470d2806d1531c0b60537849
:1002b000023203f10d00f4e70e2807d1b2f8013045
:1002c00003325bba9bb203f20d10eae700207047dd
:1002d000f0b51e4b8bb002ad04460f469c462a4635
:1002e00003f1180e2e4618685968083303c6734583
:1002f0003546f7d118681b7930603371144bdcf840
:100300001d001b7900908df804301346224608ae7c
:100310001d4603cdb542106051602b4602f1080224
:10032000f6d1286807f10b0110602b7904f11d004c
:10033000137180220ef02dfb00989df80430c4f854
:100340009d0084f8a1300bb0f0bd00bf5f1803081a
:100350007c18030838b514463ab10c2ad3b206d833
:1003600000f8013b0ef015fb0134204638bd0d2589
:100370000d3b0570437002300ef00bfb0234f4e7c6
:1003800023289abf024b33f910006ff0ef0070473b
:10039000a0180308704710b404686468a44610bc31
:1003a000604790f88406003818bf012070474ff06e
:1003b000ff30704781817047c18170470b88032be4
:1003c00081bf83894b80c3898b807047072933d8cd
:1003d000dfe801f004111a2126292c2fd0f89416f9
:1003e0005b68012901d1022b03d0c0f88c26c0f82c
:1003f000943600207047003a18bf0122012380f88c
:10040000b92080f8b830f4e7d0f8803643f008031c
:10041000c0f88036ede7d0f8803643f01003f7e7f8
:10042000a0f8bc26e5e7c0f8b426e2e7c0f8b82695
:10043000dfe7c0f8c026dce71b20704710b5a1f14c
:100440000804022c21d81c68032c02d80420186050
:1004500010bd09290ed00a2914d0d0f8c01640f2d8
:10046000ae304c1e84420dd8503911600422002059
:100470001a60ede7d0f8c016481eb0f5597f01d8d4
:100480000639f2e74ff45871efe71b20e0e710b4ac
:100490000468a468a44610bc604790f860067047e2
:1004a00010b5d0f85836d0f85c46d0f8500601b1f7
:1004b0000b600ab1c2e9003410bd0368db6818475d
:1004c00003681b69184740f2ae339a429fbf06305b
:1004d0004ff0ff32c1e90003002096bfca6004203c
:1004e00088607047002070470020704770470022e6
:1004f000c0e90022c0e90222c0e9042282618283ad
:100500007047123310b5d1e90140241a9c4221bf33
:100510000b6848601230c01825bfc2e900040020f3
:100520000420906010bd10b592b14368002b0fdd20
:1005300003682bb15c1c046011b111f8014b1c70f5
:100540004368013a013b4360836801338360ebe712
:1005500010bd2de9f04106460f46144622f0030572
:100560004fea92080d44af420cd16ff0030202fb38
:1005700008442c44a5420bd0d6e90030984705f832
:10058000010bf7e7d6e90030984747f8040beae794
:100590000020bde8f081002070472de9f843d0f835
:1005a000ac3881460f46154698470024064644f667
:1005b0002068ac4212dad9f8b4380022291b381965
:1005c0009847031e0ddb01d01c44f2e7d9f8ac3884
:1005d0009847801b4045ecd94ff0ff342046bde8da
:1005e000f8831c46fae72de9f843d0f8ac38814689
:1005f0000f46154698470024064644f62068ac424c
:1006000012dad9f8b8380022291b38199847031e86
:100610000ddb01d01c44f2e7d9f8ac389847801bb9
:100620004045ecd94ff0ff342046bde8f8831c4626
:10063000fae74ff0b10cf0b50b68d0f8b4468789f3
:10064000c689b0f8bc56d0f8b80683f804c04ff09d
:10065000680c83f805c04ff0ff0c1f7283f806c0ca
:100660009e724fea172c1a73370a160a0622502177
:100670009a732a0a5a74032219700221da74c0226a
:10068000597000211a75220e5a75220c9a75220a89
:10069000da75c0f307229970d97083f807c05f72ca
:1006a000de725973d97319749d741c765a769876d4
:1006b0001b20f0bd70b50b68056804466b4013ea5b
:1006c000020041d1d30605d5ee0603d5268b0b8b50
:1006d0009e4238d1500705d56b0703d5e068cb683b
:1006e000984231d1960705d5a80703d5a0688b6835
:1006f000984229d1d30705d5ee0703d560684b682a
:10070000984221d1100705d52b0703d520690b6925
:10071000984219d1960605d5a80603d5608b4b8b58
:10072000984211d1530605d56e0603d560694b6911
:10073000984209d1100609d52a0607d5a08b8b8bc4
:10074000c31a5842584170bd0020fce70120fae767
:1007500003681b68184738b51546d0e90223934251
:10076000044607d2d21a4068aa4228bf2a46184433
:100770000ef00ff9e26801202a44e26038bd7fb52f
:10078000044600f504760d460020236c8bb10d2144
:10079000009004f14900a847402101902046a84755
:1007a0000121029004f14800a847102103906846f7
:1007b000a8475834b442e8d104b070bd10b46024e6
:1007c0000b681c7000245c709c70dc704b68ca6005
:1007d000032b84bf04238b60406810bc03685b68f4
:1007e000184770b51c4605460e4611461a460ef0cf
:1007f000d0f8321b28190021bde870400ef0d7b8a0
:100800000a460b8884300821fff7ebbf2de9f0473b
:100810000f6c05468a46144657b9c0e90077c0e90f
:100820000277c0e90477876187832846bde8f087af
:1008300012f0100616bf1026b146b1f8bc9612f0a1
:10084000010807d0002301211a460846b847804610
:1008500046f0010614f0020709d00023daf84070d0
:100860001a4601211846b847074646f0020614f01a
:10087000040007d0daf864100af58660fff77ffffe
:1008800046f0040614f008011cbf46f00806daf82a
:10089000801614f020031cbf4ff4707346f020063e
:1008a00014f040021cbf46f04006daf8b42614f0fb
:1008b00080041cbfbaf8b84646f08006c5e9006857
:1008c000c5e90270c5e90412a5f818906b83ac83e2
:1008d000abe710b40446084611466268d4681a466d
:1008e000234610bc184710b40446084611466268f7
:1008f00014691a46234610bc184710b4044608462b
:100900001146626854691a46234610bc18470346cc
:100910005b6808469b691146184743681b6a18477d
:100920000346084621b1db680b44013bb3fbf1f001
:100930007047006800ba704770b50a460446418c9b
:100940000830fff7edff012683b2104698420bd224
:10095000656ac108695c00f0070206fa02f21142fa
:1009600004d0013080b2f1e74ff6ff7070bd10b4d3
:1009700001291346c06807d102685968146803f159
:100980000802234610bc18476ff0770010bc704770
:1009900038b5144619b904220846226038bd1368d8
:1009a000032b07d903685b6898470028f6d1042316
:1009b0002360f3e76ff0bd00f0e7836900200b6070
:1009c000704710b460240b681c7000245c709c702d
:1009d000dc704b68ca60032b84bf04238b60036800
:1009e00010bc586803685b68184770b40c689df8c1
:1009f0000c506126657000252670a570e570227187
:100a00004a68cb60042a88bf052270bc88bf8a6010
:100a10000368586803685b681847000008b5024b14
:100a20001b681b6e019308bdb801060808b5024b90
:100a30001b689b6e019308bdb801060808b5024b00
:100a40001b685b68019308bd9c010608f8b50e465b
:100a5000144622f0030597080d44ae420bd16ff007
:100a6000030202fb07442c44a54209d0fff7e6ff2e
:100a700005f8010bf8e7fff7e1ff46f8040bece798
:100a80000020f8bd2de9f74f4ff001081746044646
:100a90001d460e464246c0f8808600f5d66100200d
:100aa000fff7d4ffd5e901a9bb6879684ff4197243
:100ab00004f53b60d5f820b001930df06aff019b6f
:100ac0004ff49472194604f688200df062ff3368e3
:100ad0002a46c4f8143e73683821c4f8183eb36837
:100ae000c4f870bfc4f81c3e194bc4f878afc4f802
:100af000743f04f68473c4f8803f0023c4f87c9fdd
:100b0000c4f88430c4f8883004f14c0630462b8891
:100b1000fff767fe0c9b3c211b680c9a04f1100048
:100b2000fff75ffe04f1c003c4f8b43043f6982326
:100b3000c4f88c3642f21073c4f890360223c4f81d
:100b4000c46084f88486c4f8943603b0bde8f08f9e
:100b50009503020808b5024b1b685b69019308bd49
:100b60009c0106084ff40052024b08b11a837047eb
:100b70005a83704700000240014b1860704700bf65
:100b800078460120014b1870704700bf2e440120a9
:100b900010b5054b1c78054b4443db680020984793
:100ba0006043000c10bd00bf2e4401200044012012
:100bb00038b50546c0f307400c46fff7e9ff208033
:100bc000c5f30720fff7e4ff6080e8b2fff7e0ff1e
:100bd000a08038bd014b1860704700bf7c460120e3
:100be00010b9024b18687047014bfbe778460120ab
:100bf0007c460120014b1878704700bf2e4401202d
:100c0000024b1860024b1960704700bf80460120fc
:100c10008446012010b5054b0446db680020984748
:100c20002402b4fbf0f0c0b210bd00bf00440120ac
:100c3000f7b5104b104f5d68828800234188044649
:100c40000088a8473b689bb12088fff7e3ff054673
:100c50006088fff7dfff0646a088fff7dbff002272
:100c6000034606480092294632463c680068a04781
:100c700003b0f0bd004401208046012084460120dd
:100c800007b56946fff794ff6846fff7d1ff03b049
:100c90005df804fb13b518b1e72807d002b010bd0a
:100ca000104b5b6902b0bde8104018470e4b1b7833
:100cb000a3b10e4b1c680b4b00219b6868469847fc
:100cc000bdf80220bdf800301343bdf804201343e3
:100cd0009bb22bb10020fff7d3ffdfe7044be9e71e
:100ce0002046f8e700440120044601207c4601200c
:100cf0007846012013b51a4a1a4b147854bb0121c7
:100d000019701b78e7281c44e4b2147020d1164bec
:100d10001b781bb3154b18686946fff749ff632220
:100d2000bdf8003068466343b3fbf2f3adf8003022
:100d3000bdf802306343b3fbf2f3adf80230bdf807
:100d400004305c43b4fbf2f4adf80440fff770ffed
:100d500002b010bd632cd4d1ff21d1e7044bdae7f8
:100d60002d4401202c440120044601207c46012012
:100d7000784601202de9f341dff834800446002154
:100d80006846d8f8083098476e46671e023400203f
:100d9000d8f80c3036f8025b98472d02b5fbf0f519
:100da00007f8015fa742f2d102b0bde8f08100bfb1
:100db00000440120024b1878003818bf012070470a
:100dc0000446012084b030b503ac84e80f00064c23
:100dd00003ad0fcd0fc495e8030084e80300bde820
:100de000304004b0704700bf0044012008b5084bf4
:100df0001b7853b1074b1868fff742ff6322064b7d
:100e00001a70ff22054b1a7008bd054bf3e700bfaf
:100e1000044601207c4601202d4401202c44012061
:100e20007846012010b1e72805d070474ff40052f2
:100e3000024b1a837047fff7d9bf00bf0000024082
:100e400008b50020fff71cff0022034b1a70012297
:100e5000024b1a7008bd00bf2d4401202c44012014
:100e600010b1e72805d070474ff40052024b5a8367
:100e70007047fff7e5bf00bf0000024030b50346f2
:100e800085b088b1029200226c4608480392cde9f1
:100e9000000104ad224603caaa42186059601446f4
:100ea00003f10803f6d1012005b030bdb10e0208f0
:100eb00010b54468a31843600023934201d1012078
:100ec00010bdc85ce0540133f7e700001fb50346ce
:100ed00040b1054801accde9010103cc1860012007
:100ee00059609a6004b010bded0e020810b5446858
:100ef000a318436039b9012010bde05cc854013328
:100f00009342fad1f7e70023fae70000002908bf6f
:100f10003221024b1970024b186070472f44012098
:100f20008846012070470cb402b07047704700003b
:100f30002de9f04f00244ff0010c4ff0ff3627460b
:100f4000d0f804e0964504d211f80e80b8f1000ff5
:100f500009d18268511e03eb0213002980f2b2818d
:100f600060b2bde8f08fb8f13a0f7ed033d8b8f157
:100f7000220f00f0aa8010d8a8f109085ffa88f8bb
:100f8000b8f1170f0dd8b14d0cfa08f818ea050f93
:100f900007d0456801354560d2e7b8f12c0f00f065
:100fa0003181d0f8048042450ed911f808505db166
:100fb0003a2d00f268811f2d00f24f810a2d00f2b8
:100fc0005f81082d40f25581002b40f0618108f1ce
:100fd000ff354560a9e0b8f17b0f1dd00ad8b8f104
:100fe0005b0f19d0b8f15d0fdbd1002bd1d04ff0e2
:100ff000020906e0b8f17d0fd3d1002bc9d04ff024
:1010000001098568013d03eb0518002d30da013533
:10101000bfd16ff00100a4e70134002bb9d085687f
:10102000ddf824e0ae456ad905f1010ec0f808e00c
:1010300003eb051ecee90166cef80c704fea051ae7
:10104000c568b5f1ff3f1fbf03eb0519d9f80c5078
:101050000135c9f80c50b8f17b0f0cbf01250225f2
:1010600003f80a504568cef804508568013d1fe03a
:10107000d8f804a0baf1ff3f1cd0d8f808a0baf104
:10108000ff3f17d198f800b0cb45c2d10ef1010e49
:10109000c0f80ca0c8f808e003eb051edef80480d9
:1010a000b8f1ff3f0ad0def80880b8f1ff3f05d164
:1010b000c5606ee7013da8f11008a6e7013db5f156
:1010c000ff3faef1100ee9d163e70ef10109c0f860
:1010d0000490d0f80480424502d911f8085025b98f
:1010e000c0f804e06ff002003be7222d2ed1e3b1ff
:1010f0008568ddf82480a84504d8c0f804e04ff0e6
:10110000ff302ee74ff0030a05f1010e4fea0518f4
:1011100003eb0515c0f808e0c5e90166ef60d0f8fb
:1011200004e003f808a0c5e9019ec5680134b5f1e3
:10113000ff3f3ff42eaf002b3ff42baf03eb051e18
:10114000def80c500135cef80c5022e75c2d11d1a1
:1011500008f1010595420dd245604d5d752d2ed8e3
:101160006d2d0bd8662d2ad85b2d1fd8222d01d0ce
:101170002f2d24d1456801354560aae76e3d072d26
:101180001dd80ff2080a5af825f000bf75110208a1
:10119000bf110208bf110208bf1102087511020831
:1011a000bf11020875110208c511020840f241483a
:1011b0005c3dedb20cfa05f515ea080fdad1c0f87e
:1011c00004e026e74ff0040a08f102054560d0f874
:1011d0000480424512d911f808507db1a5f1300bb9
:1011e000bbf1090f04d925f02005413d052de6d8b6
:1011f00008f10105baf1010a4560e8d14568013df1
:101200004560b7e7002b3ff4c4aec5682d015d5db6
:10121000013d012d7ff6bdae856805f1ff3803eb7a
:10122000051eb8f1000ffff6b4ae1ef8105c013dcc
:10123000012d0dd85ef80c5c013509d05ef8085c14
:10124000013505d1c0f80c80a3e600bf1300800073
:1012500008f1ff38aef1100ee3e7a5f12009dff841
:101260007ca05ffa89f90cfa09f919ea0a0f7ff4f0
:10127000abae203d5e2da2d808f10105456090e699
:101280000d2df6d1a0e605f0df09b9f15d0ff8e705
:101290008568ddf82480a8457ff62faf05f10108a9
:1012a0004fea051903eb0515c0f80880c5e901668a
:1012b000ef60d0f8048003f80970c5e901e84568db
:1012c000013d86e653f80c2c013204d053f8082c6b
:1012d00001323ff407af0139103b3ee60110000434
:1012e0000023c0e901334ff0ff33c36070470fb4f0
:1012f00004b0704770470000034a044b32ea2000f4
:1013000028bf1846704700bf861d0308c811030890
:10131000034a044b32ea200028bf1846704700bf3a
:10132000861d0308c8110308034b1860034b19609e
:10133000034b1a60704700bf344601203846012035
:101340003c460120f0b5164b05461e680f46144674
:10135000abb036b9134b1b6803b3134b1b788342f6
:101360001cdc23791b0706d4fff7f4fb23796061ab
:1013700043f0080323718eb1dde93023a02102a8d8
:10138000fef732ff9f28c4bf7e238df8a6300023ce
:101390003a4600932946234602a8b0472bb0f0bd39
:1013a00034460120884601202f44012070b51a469a
:1013b000134b04461d680e46aab035b9114b1b6885
:1013c000bbb1114b1b78834213dc2e9ba02102a8da
:1013d000fef70aff9f28c8bf7e230146c4bf8df8d1
:1013e000a6309f213db100232246009302a8334638
:1013f000a8472ab070bd034b02a81b689847f8e7be
:1014000038460120884601202f4401202de9f04f65
:101410001446294a074688461568adb0002b39d0d6
:1014200035b9264a1268aab3254a1278824231dcbd
:101430000021dff89090dff884b08df8ac10e6184a
:1014400014f8013b2ca84fea131c19f80cc00844ef
:1014500003f00f034a1c00f8a4cc19f80330023142
:101460002ca80244a02902f8a43c09d1adb14ff048
:10147000000a43463a46cdf800a003a8a8475146c3
:10148000a642ddd131b175b100233a46009303a8dd
:101490004346a8472db0bde8f08fdbf8003003a825
:1014a00098472946ece72cab1944044b01f8a45c9f
:1014b0001b6803a89847ede73846012088460120bd
:1014c0002f4401202c1a030810b4094a034614685b
:1014d0001cb12346002210bc1847064a106828b1e8
:1014e000054a10788342b4bf0020012010bc704729
:1014f0003c460120884601202f4401204528dabfc0
:101500000a2390fbf3f00620034bd8bf20eae070db
:1015100053f82000704700bf101a030873b50d463a
:101520001946064b04461e68104626b10023224683
:1015300000932b46b04702b070bd00bf3846012073
:101540000bb1fff7ebbf70474ff080439863d9634f
:101550001a6470474ff080439a6b0280da6b4280c6
:101560001b6c838070470000024a536983f4005368
:1015700053617047000002404ff08043d86a013049
:1015800080b270470346084a30b500f11005144692
:1015900018685968083303c4ab422246f7d118686b
:1015a0002060002030bd00bf0c460120024b002807
:1015b00018bf1846704700bf88faffff0023c0e934
:1015c0000011c0e902328b781a44026191f90330ac
:1015d0001a4442610878003818bf0120704738b5b6
:1015e000416803460a78002a34d001f10a024260b9
:1015f0008c7a2cb9c2680168fff7e0ff204638bd3d
:1016000048780a7900f03005302d09d1cc7a04f001
:101610003004302c18d10c7bff2c15d10120eee7c3
:1016200000f0f004202c0fd14879424315b9986896
:1016300001309860087b10441a6902441a6191f9dc
:101640000d100a445a61e9e700f0c000802808bf85
:101650000422ebe71046d2e7f8b5066804461546c3
:1016600026b90120e2682a44e260f8bdc3688768b1
:1016700013449f4201d20020f7e7b0470028f0d181
:10168000f9e710b543780a4613f03001044686b0f6
:101690003fd0202990f9030005d160b1105cb0fa69
:1016a00080f0400907e03029f8d0102905d120b199
:1016b000105c80f0010006b010bd13f0c00f0dd11a
:1016c00003f00f03052b01d11078e8e7062bfbd0c0
:1016d000092b01d12079e2e7072b05d023791344a8
:1016e000934212d10120e6e76846d4f80610fff7ce
:1016f00065ff0028f6d004990198fff7c2ff002883
:10170000d9d06846fff76bfff3e712f8011b0029f9
:10171000e6d00020cfe7802a7fb5114673f10002a2
:10172000044607d201228df8041001a9fff794ffa7
:1017300004b070bd002201ae61f07f00cdb2c909d6
:1017400041ea4361db0951ea030c06f8010b10463c
:1017500002f10102f0d104ab034405f07f0103f86c
:101760000c1c204601a9e1e7134641eac2025b0fc7
:10177000fff7d1bf4a780b4602f00f02092a10d8b2
:10178000dfe802f00d0d0d05090b0b0b0f0b05210a
:101790001a78fff7e9bf0121fae70221f8e70021f3
:1017a000f6e70020704700002de9f04715464a781b
:1017b000064602f0c003402b0c4686b000f0d280f3
:1017c00053061bd46a4b02f00f0153f8217094f9b1
:1017d0000330bbb12b44627802f0c000802805d1f1
:1017e0002d68291e18bf01218df8071002f0300165
:1017f000202936d019d8f9b110292dd0002006b0f3
:10180000bde8f08702f03002102a0ad129462046ae
:10181000fff737ff80f001008df807000df1070397
:10182000d9e701238df80730f8e73029e6d11a7897
:1018300023789a4213d101e0002ddfd021463046b3
:10184000fff798ff0028d9d02a46214630463b466c
:1018500006b0bde8f04718471b78002beed10120f9
:10186000cde794f9031059b393f80080b8f1000f55
:10187000f5d0802802d063799845bfd802f00f02d6
:10188000042a4cd8022130462278fff76dff002849
:10189000b4d0637803f00f03032b14d14fea880907
:1018a0004a4600233046fff736ff0028a6d03168ad
:1018b00029bb4a46304606b0bde8f047fff7ccbe2c
:1018c00094f80580d2e7042b02d14feac809e7e774
:1018d0001022002102a80df06af8aa464ff0000974
:1018e0005246214602a8b847002888d0237909f13a
:1018f0000109c8459a44f3d8ddf81490d0e74ff0b9
:1019000000092a4621463046b84700283ff476af02
:10191000237909f10109c8451d44f2d89fe74ff02a
:10192000000921463046fff725ff00283ff466af47
:10193000637803f0c002802a12d103f00f03053b45
:10194000012b0dd82a6821463046b84700283ff4bd
:1019500055af237909f10109c8451d44e1d87ee757
:101960002a46f0e72b68002b3ff479af2a1d6fe77a
:101970002c19030830b587b005466846fff71efef0
:1019800010b9012007b030bd0199049a4b7803f0db
:101990000f03082b1cd114681cb96846fff71ffe03
:1019a000eee723685a682ab121462846904768b96d
:1019b0000020e7e7996828464b7803f0c003802ba6
:1019c00014bf6268221dfff7effef0e7a468e3e7ab
:1019d0002846fff7e9fe0028dfd1e9e77fb50d468d
:1019e000164600211022044668460cf0e0ff3246fd
:1019f00029466846fff7beff08b1039b236004b089
:101a000070bd70b5002304460d461646fff783fef1
:101a100030b1324629462046bde87040fff71cbe73
:101a200070bd2de9ff410e461746002110220446e5
:101a300068460cf0bcff3a4631466846fff79aff0d
:101a400048b34ff00008039d43462a462046fff75f
:101a500062fe00b3216831b92a462046fff7fcfd3b
:101a600004b0bde8f081e268a3682a449a4212d823
:101a700063683a46009168463146cde90135cdf8b4
:101a80000c80fff777ff039ae368aa421344e360f0
:101a9000019b6360e4d00020e2e713460a79012a43
:101aa00004d193f90020d317fff735be022a02d1e3
:101ab000b3f90020f7e7042a01d11a68f3e7082aee
:101ac00002d1d3e90023efe70020704713460a79db
:101ad000012a03d11a780023fff71dbe022a01d183
:101ae0001a88f8e7042a01d11a68f4e7082a02d113
:101af000d3e90023f0e7002070470b79012b0bd1cd
:101b000092f90030d917da1841eb01030029bcbf64
:101b1000d243db43fff7ffbd022b02d1b2f9003005
:101b2000f0e7042b01d11368ece7082b02d1d2e9ce
:101b30000031e8e70020704707b5d2e900130a0a30
:101b40008df801200a0c8df802201a0a8df8001079
:101b50008df80520090e1a0c8df803108df804304d
:101b60008df806201b0e082269468df80730fff716
:101b700073fd03b05df804fb07b513681a0a8df80e
:101b800005201a0c8df8062004228df804300deb88
:101b900002011b0e8df80730fff75efd03b05df804
:101ba00004fb30b40c460546114612b930bcfff7b1
:101bb00028bf6378127813f0c00003d12479531c36
:101bc000a34202d828460131f0e730bc704710b478
:101bd0000b79497801f0c001802908bf4ff0ff332d
:101be000114622b100229a4201d08c5c14b910bc7b
:101bf000fff707bf0132f6e7d1f8061009b1fff78a
:101c000010bf0846704713460a791946fff7f9be18
:101c100030b50446154685b0a9b90268114b9a4201
:101c200011d0102d06d82a4669462046fff7f0ff4e
:101c300005b030bd102269462046fff7e9ff0028b5
:101c4000f6d0103dede7a368ab4201d20020efe7ec
:101c50002a462046236898470028f7d0a268521bde
:101c6000a260e5e7ed0e020810b5836804460bb9e3
:101c7000002010bd0122036898470028f8d0a3680f
:101c8000013ba360f5e72de9f34188460df107011b
:101c900007461446fff7e8ff064658b9bb6823b16c
:101ca0000026304602b0bde8f081002cf8d00123b8
:101cb0002370f6e79df907309df80740002b21dae5
:101cc000072504f07f0438460df10701fff7ccff2c
:101cd0000028e5d09df807301f2d03f07f0214d9ae
:101ce0003f2d34bfff2101211ab1002cd8da9942cf
:101cf000d6d11a0605f10705e5d4232d02d113f03c
:101d0000700fcdd1c8f80040cbe7aa401443f0e7ec
:101d10002de9f341002580460e462f462c464046cd
:101d20000df10701fff7a0ffc0b19df807c0a4f1b6
:101d300020030cf07f02c4f1200102fa03f322fa1f
:101d400001f10b43a2401cf0800f45ea020547ea6f
:101d5000030704f1070404d1c6e9005702b0bde847
:101d6000f081462cdbd10020f8e713b504460529a5
:101d700026d8dfe801f0030f17252523012220468e
:101d800001a9fff745ff18b19df90430002bf5dbe1
:101d900002b010bd08220021204602b0bde810406c
:101da000fff736bf002201a9fff76dff0028efd033
:101db00000212046019afff72bffe9e70422eae71a
:101dc0000020e5e737b50d46002201a90446fff7dc
:101dd0005aff034618b90023184603b030bd94e8f3
:101de000070085e8070001998a42f4d3a960a26838
:101df000521aa260f0e738b58a6805460c461ab94f
:101e0000012063686b6038bd00212046fff700ffaa
:101e10000028f5d1f7e77fb50a4601466846fff787
:101e2000cdfb30b1684600f0e5f86846fff7d7fb18
:101e3000f7e707b05df804fb2de9f0430b46516866
:101e400015464a78064612f0c00487b003d0402ced
:101e500073d000240ce002f00f0c644f02f030024b
:101e6000202a57f82c702cd006d8d2b1102a1ed0b8
:101e7000204607b0bde8f083302af9d16b690a78b3
:101e8000bcf1070f1a7018d16b6821461a792869be
:101e90000cf08dfd6b682969d3f80600fff7bbffd6
:101ea0000be02a693b4607b0bde8f0431847d5e987
:101eb000042393421cbf01221a702a6969683046c4
:101ec000f0e7022bd5f8148029d1bcf1040f26d8f5
:101ed00003a9fff777ff04460028bad0059b2bb172
:101ee000696898f800304a799a4209d8059b002b16
:101ef000afd1304603a9fff77eff0028b8d1a8e78d
:101f000008792a6903fb002203a8b84728b198f88a
:101f10000030013388f80030e0e70446e6e798f83f
:101f200000300879591c2a6988f8001069684c79d2
:101f30009c428ed903fb0022c1e72f690fb13a689a
:101f400032b91946304607b0bde8f043fff70dbf80
:101f5000022b07f1040816d103a9fff733ff00286d
:101f60003ff477af42463b68696803a8984700286a
:101f70003ff46faf059b002bf4d1304603a9fff768
:101f80003aff044674e7012b21d0052b27d0002b04
:101f90007ff45faf1c46e94601340b2c3ff459af88
:101fa000012249463046fff733fe00283ff451af87
:101fb00019f9013b002befdb0d4bcdf810d003934b
:101fc000059442463b68696803a89847d9e7082208
:101fd0006946fff71dfe08240028edd139e70422e9
:101fe0006946fff715fe0424f6e700bf041903084d
:101ff000ed0e020830b542680346527887b002f011
:102000000f0108291dd1002503691c680cb907b010
:1020100030bd23682573996862686846fff7cefa79
:1020200063686846049304f10c0305934b7803f04e
:10203000c003802b04bf231d0493fff7dbffa468bc
:10204000e4e712f0c0012ad102f03000102814d1c8
:10205000d3e90402824200d011705a68186953789b
:10206000d2f8064003f00f03072b0bd101462046a0
:1020700007b0bde83040fff7cebe9006edd55b69f6
:102080001970c4e72146127924b107b0bde8304089
:102090000cf07fbc07b0bde830400cf088bc802954
:1020a000b5d10021006992060160b0d5e7e72de9be
:1020b000f04f002491b0054604a8cde902448df804
:1020c0000640a146fff77afaa346ab68d3b924b11c
:1020d00062799df806309a4252d1dde9053404a8b0
:1020e0005d78fff77cfa0028f7d115f0300f03d1a7
:1020f000059b1b7803b10134402c7bd8002c7ad18e
:1021000001203ee028460df107020aa98df807b02c
:10211000fff7b9fd20b10a9f3fb901238df80730c1
:102120009df80730002bd2d12ae0ddf814a04fea49
:10213000d70807f00707059b1a78904504d15a780d
:1021400002f00f01082979d104a8fff748fa059e8b
:10215000b245f0d1c1450dd8059a537803f00f036d
:10216000082b4fd004a8fff73afa059b9e42f3d103
:102170004ff0ff3939462846fff7f7fd0028a4d174
:10218000002011b0bde8f08f99680b78984553d1c5
:1021900072680aa8fff712fa736828460e9306f1d0
:1021a0000c030f934b780aaa03f0c003802b04bfe3
:1021b000331d0e934ff0010339463373fff73cfe96
:1021c00038e051f8040b0130dad101329342f8d1f2
:1021d00014f01f0494d04ff0ff3010aa02eb8303d9
:1021e000c4f1200420fa04f453f8380c231a58429e
:1021f0005841c6e740240022630902a9e6e79a4550
:10220000b8d062e792f80090c145b3d8089bd5f8e2
:1022100008a01e68ab68002ef1d09a457ff455af38
:1022200033681a689446002aaed03b46424631468f
:102230002846e0470028a3d0b668ebe702f030025a
:10224000202a11d1dde9082191420dd19c4207d00d
:1022500024b161799df80620914291d18df806b0a4
:102260001c460df1060209925b7813f0300f10d175
:10227000069b3f2b0dd85a0910a901eb82020121c0
:1022800003f01f0301fa03f352f8381c0b4342f822
:10229000383c3946284604aafff7cefd6ee737b52d
:1022a0000d4669461446fff733fd30b1dde90012f3
:1022b0002b79082b03d1c4e9001203b030bd042be5
:1022c0004feae17009d10b4602462160824208bf05
:1022d0008b420cbf01200020efe7022b03d10bb291
:1022e0002380da17f2e7012b02d14bb22370f8e713
:1022f0000020e2e737b50d4669461446fff708fdb2
:1023000070b12b79082b0dd1dde90032c4e9003220
:10231000dde90001914208bf98420cbf0120002076
:1023200003b030bd042b03d1009b23600022efe7f4
:10233000022b03d1009b23809bb2f7e7012b04d132
:10234000009b237003f0ff03f0e70020e8e773b57c
:102350000e4669461546fff7dbfc78b1dde900243f
:102360005308d207327943eac4734fea540444bf96
:10237000db43e443082a03d1c5e9003402b070bd51
:10238000042a09d11a462b60d917a14208bf9a42e4
:102390000cbf01200020f1e7022a03d11ab22a80e3
:1023a000d117f2e7012a02d15ab22a70f8e70020c9
:1023b000e4e713b5144604220deb0201fff728fcf5
:1023c00008b1019b236002b010bd13b514466946e5
:1023d0000822fff71dfc18b1dde90023c4e9002342
:1023e00002b010bd73b50d46144601a90022064681
:1023f000fff749fc88b1019aff2a10d86b78511c6d
:1024000003f0c003802b0ad02b798b4207d32146df
:10241000304601f8012bfff7fbfb02b070bd002036
:10242000fbe7f7b50e46154601a900220746fff760
:102430002afc98b1019a0024511c04d2737803f04d
:10244000c003802b01d1204608e033798b42fad3b8
:1024500029463846fff7dcfb019bec5403b0f0bd86
:10246000f0b585b00d46d1f8067001a906461446b0
:10247000fff7a8fcb0b1d5f806309bb16b7803f03c
:102480003003202b03d121463846fff7c4fc2246f7
:10249000394601a8fff70bfe01a904463046fff7b5
:1024a000aafc00b90024204605b0f0bdf7b50f46e0
:1024b000154601a900220646fff7e5fb044638b1a0
:1024c0000199ff290fd83a7929b928460cf06ffafb
:1024d000204603b0f0bd8a4205d129463046fff7b9
:1024e00097fb0446f4e70024f2e770b504460e4675
:1024f00015460021ac220cf05afac4e9296570bdda
:10250000002238b50d4611460446fff7eeff4ff4a2
:10251000807205f12101626004f1080009f06ff991
:1025200004f114001021bde83840014a09f0acbba9
:10253000d61103080022f8b50c4611460546fff7f0
:10254000d4ff80226a60677a05f1080007f001076e
:1025500007f10a012144a7f16f0609f050f9f6b21c
:102560002d4a102105f1140009f08efba35d05f141
:102570002000da0744bfa7f16e06f6b2711cc9b29b
:1025800006f182072144802209f039f9e35d4022f7
:10259000db0748bf06f18307791c07f14206214497
:1025a00005f12c0009f02bf9a35d4022d80748bfa4
:1025b00007f14306711c06f14207214405f138007a
:1025c00009f01df9e35d4022d90748bf06f1430732
:1025d000791c07f14206214405f1440009f00ff986
:1025e000a35d05f15000da0748bf07f14306711cef
:1025f0002144402209f003f906f14201635c05f130
:102600005c00db0748bf06f1430101312144402251
:10261000bde8f84009f0f3b8d611030870b5b0b0c2
:10262000044605a815461e46fff784ff002204abaa
:10263000cde901450093cde903620123084905a8ce
:102640000af0a6fe054605a8049c0bf035fa15b95c
:10265000204630b070bd85eae570c0ebe570f8e764
:102660004d0a020870b50446d0e9015305eb031684
:10267000ae4206d0281d6ff095010bf032ff1035e9
:10268000f6e7d4e9015305eb0316ae4204d0281d4a
:102690000cf0f4f81035f8e700234ff0ff32a36098
:1026a000c4e9042370bd38b50025044680f8885677
:1026b00080f86056c0f8545680f88c50c0f890509e
:1026c000c0f8b05000f5d360fff7ccff6068036836
:1026d0001b6b98474ff0ff33c4f86c56c4f8743640
:1026e000c4f8783638bd8842f8b506460c4615461b
:1026f0001ad9904219d20026a2f110056c1aa1f144
:1027000010070444af4223d044b12b8823806b6868
:102710006360ab68a360eb686e60e360281d0cf03b
:10272000adf8103d103cede712d00027ac420fd0c1
:1027300046b12388338063687360a368b360e3683d
:102740006760f360201d0cf099f810341036ede747
:10275000f8bd2de9f04300254ff0ff3306460c4647
:102760009046a946c0e9005585b00b61a3689d421b
:102770003bda62682b01d35a02eb0517b8f8002048
:1027800093422bd1adf800307b68381d0193bb68b4
:102790000293fb68c7f8049003930cf06ff8d4e938
:1027a0000132384603eb021207f11001fff79bffdd
:1027b000a3686ff0f901013b3046a3600bf091fe76
:1027c000019b01a83360029bcdf8049073600cf06c
:1027d00055f8a368002bc9d16361c7e7fb6822697c
:1027e0000135934238bf2361c0e7304605b0bde8ec
:1027f000f083f0b590f88c30054687b0002b32d1cd
:10280000c36e984795f8604654bb012795f8b066ab
:10281000c5f85406f31985f8b03601a885f8607636
:102820000cf023f868682246036801a9db69984721
:102830004122019b01a91a70b1225a7174229c7025
:10284000dc701e719a715f70029b6868072b24bf51
:102850000723039303685b689847b0fa80f4640920
:10286000204607b0f0bd0024fae730b504460d4617
:1028700087b001a80bf0f9ff60680022036801a986
:10288000db699847019b9db9d4f8802652070fd584
:102890001d700125e36e9847029ba0609d42606811
:1028a00098bf0395036801a95b68984707b030bdde
:1028b00040221a70002204255a709a70da70e9e7f3
:1028c000f0b5036887b01d6801a80e681f7a0bf089
:1028d000ccff2b680a2201a92846db6998472b68a0
:1028e00028465b69019c9847002814bf4123512367
:1028f0002370442363700023a370e370ff2363718c
:102900003316a3713314e371277133122372029bc0
:102910006672092b84bf0a2303932b6828465b68e1
:1029200001a99847003818bf012007b0f0bd2de974
:10293000f74f00f5866805460f464ff0000ac1467e
:10294000cde900230c9ed8f84030009a9a4277d106
:10295000d8f844300d9a9a4272d198f84830019aca
:1029600093426dd1402138460df0eafd58230246ce
:102970003946404603fb0afb0df0cefd0446002815
:102980005ed1002e53d00c2130460df0d9fd024609
:1029900000284cd00bf14900314648440df0bcfdf5
:1029a00000283ed0582305f58e6203fb04f852f848
:1029b00008a0baf1000f4ed1402138460df0c0fdfd
:1029c00005f5866b0beb080381460246394618462f
:1029d0000bf0dfffc9f14002514648440bf0e7ff1e
:1029e000009a05eb0803c3f870240d9a83f879a4c4
:1029f000c3f874246eb30c2130460df0a1fd0746d8
:102a000008f149003a46314658440bf0c2ff5820bd
:102a100000fb04540020019b274487f8790484f8c4
:102a20007834b0fa80f0400903b0bde8f08f582345
:102a300003fb0a5a9af879040028f2d00024b1e77f
:102a40000af1010abaf1060f08f158087ff47bafca
:102a5000f4e73746d4e70134062ca6d10420e0e79a
:102a60002de9f843884600f5866631b93046bde861
:102a7000f8434ff404720bf09abf002534462f46fa
:102a80004ff05809214640460cf0d1fa014650b9a2
:102a9000582220460bf08bff0137062f04f1580413
:102aa000f0d1bde8f883af420ad05822214609fb95
:102ab00005600bf06eff5822002120460bf077ffd7
:102ac0000135e9e710b50446034b036000f294704a
:102ad00005f0e2ff204610bdc019030810b50446fa
:102ae000024b0360fff7eeff204610bd6819030894
:102af00010b50446fff7e6ff20464ff40c610bf0db
:102b000044ff204610bd10b50446fff7e7ff2046fe
:102b100040f6c4010bf039ff204610bd2de9f04fff
:102b2000d0f85037071dc362d0f85437282203630a
:102b3000d0f858373946ebb043630446fdf753fdf0
:102b40000028c0f2ac8004f2ec45294604f13800bc
:102b500004f57179fdf7bcfb494614a8fff7d0fcda
:102b6000d6230093002304f1da081a46cde9017850
:102b70004e4914a80af0d0fa064614a80af09cffa1
:102b8000002e40f08e804ff4807241462046fdf7c3
:102b900004fd4ff4c07239462046fdf724fd00289d
:102ba000c0f281804ff0280a4ff0800b29463fa8e1
:102bb0000df114080deb0a05fff7bcfc32460123aa
:102bc000cde901753949cdf80ca0cdf800803fa8ba
:102bd000cdf814b00af0dcfb06463fa80af06cff03
:102be000002e58d13b4652462946cde900b8304820
:102bf0000bf05cfb49463fa8fff782fc04f184031d
:102c0000cde9028314233246cde9006327493346d8
:102c10003fa80af02ffc06463fa80af04dff002e01
:102c20003bd104f25c760eab2a4603ca9a4230606e
:102c30007160154606f10806f6d11f4604f26c765f
:102c400012ad3a4603caaa4230607160174606f1d7
:102c50000806f6d104f27c761a4603caaa4230600e
:102c60007160134606f10806f6d12b4603cbd4f863
:102c7000bc38c4f88c07c4f8901713b1b4f88c278b
:102c80001a80d4f8b03813b108212846984700209c
:102c90006bb0bde8f08f0620fae70820f8e71920ae
:102ca000f6e70720f4e71a20f2e700bf4d0a020812
:102cb000d81a0308531c70b505460e46144603d1b6
:102cc000084606f027fc04466b68a3420bdb22464d
:102cd0002968304606f041fc22462846bde870408f
:102ce0000021fdf720bc70bd30b57f29044685b0ba
:102cf00007dc8df80410012201a9fdf714fc05b0d2
:102d000030bd802301258df80330002301a8cde9d3
:102d10000153039308f0e8fc01a806f0fbfb9df8c3
:102d200003302a4603430df1030120468df803309a
:102d3000fdf7f9fb4ff0ff3201a9fff7bbff01a838
:102d400008f02cfcdbe773b50223144605460e465b
:102d500001220df107018df80730fdf7e4fb214654
:102d6000fff7c2ff224631462846fff7a3ff02b015
:102d700070bd7fb504460d460126002101a8cde9ae
:102d80000161039108f0b0fc324601a92046fff72b
:102d9000daff01a808f002fc204605f108018122b3
:102da000fff7d1ff204605f114010322fff7cbff07
:102db000204605f120018122fff7c5ff204605f1dd
:102dc0002c014122fff7bfff204605f138014122c7
:102dd000fff7b9ff204605f144014122fff7b3ff99
:102de000204605f150014122fff7adff4122204668
:102df00005f15c0104b0bde87040fff7a4bf00001e
:102e0000f0b517460022b5b006460d4609a8114692
:102e10001c46fff76afb4ff001131649009304aa02
:102e20004ff4806309a8cde904740af081fe0446da
:102e3000d0b9cde90750069009a906a8fff799ff78
:102e40003023089f06a801220df10f018df80f30e5
:102e5000cde906650894fdf766fb3946fff744ffa8
:102e600009a906a8fff785ff09a80af025fe204654
:102e700035b0f0bd530502082de9f34706468868d2
:102e8000a8b320f00f0808f110075ffa87f90c6863
:102e9000a9eb0002d2b2114606f2947a20440bf05c
:102ea00086fd06f26c75802206f25c71504605f0d4
:102eb000f9fd2b463a4601215046cde9004408f081
:102ec00095f9234604f1100253f8041b934245f888
:102ed000041bf9d13f0a304604f8027c04f8019c37
:102ee00008f11202a11efdf758fb002803db0020a9
:102ef00002b0bde8f0871620fae78b6810b4032b08
:102f000016d9cb68002bb7bfb0f8c0389bb20133dd
:102f10009bb2b8bfa0f8c0380a681c0a9470d3707e
:102f20008b68032b04d90b685b885bba9bb2cb60c0
:102f300010bcfff7a1bf2de9f0470022d0f8b83848
:102f400004460e4686b00221043098470228054602
:102f500023684cd1a288314652ba95b22a462046ff
:102f6000db699847074600283dd1d6f800802a46fd
:102f700041462046fdf737fb002844db02aa4346c2
:102f8000914608f1100e9446186859680833ace869
:102f9000030073456246f6d104f2947a04f25c7140
:102fa000802204f27c74504605f052fe23462a46e5
:102fb00000215046cde9008808f018f9cc46234698
:102fc00006ac624603caa24218605960944603f1f7
:102fd0000803f6d108eb050313f8012c7368aa1a4d
:102fe0009a4200d8b260384606b0bde8f087db6987
:102ff000002231462046984700239d42acbf074639
:103000001827b360efe71727ede700004ff4407390
:1030100030b5002585b04b81074b0c464a686946a0
:103020000093cde9015503950bf0eafa2846039b7e
:10303000238105b030bd00bf5c1903082de9f041c4
:10304000804688b003a80e4617461d460bf00dfcbf
:10305000d8f8003000225c6803a923682046db69a9
:103060009847002842d1d8f80000d0f8c0365a1e40
:10307000b2f5597f88bf4ff458739df8382098bf38
:10308000063bab4202f1ff3228bf2b46082a28d864
:10309000dfe802f0051a272427272727210003b39a
:1030a0003b788df808300123009302ab3246039938
:1030b0000bf089fb049b834200d3059023682046d4
:1030c0005b6803a9984711e0032b0ad93b681bba38
:1030d00002930423e8e7072b03d9082300933b4618
:1030e000e4e7a023324603a90bf04bfb08b0bde890
:1030f000f081003818bf01200bf05aba08b5074b11
:103100001a7802f0ff003ab901221a700bf050fa57
:10311000bde80840fdf794be08bd00bf044601208d
:10312000044b1a7822b1002201201a700bf040ba29
:10313000704700bf04460120012110200df0bab9ec
:1031400001210c200df0b6b930b585b008ac54f8ab
:10315000045bcde900540394fef7f4f805b030bdec
:1031600008b410b585b007ac54f8043b0094039440
:10317000fef71cf905b0bde8104001b0704770b50e
:10318000d0e90043204643f31d03002b0ddd5a1008
:1031900050f8226000eb8205b6888e4203d29b1a5b
:1031a000281d013bf1e71346efe7001b801070bdbf
:1031b00008b5024b1b681b68019308bda0010608f7
:1031c00070b5464e3468002c40f085800320fdf732
:1031d00025fc054600287dd140f68870fff7e8ff02
:1031e0000446002876d000f2c46343603c4bc0e93b
:1031f0002555c3601423a0f894304ff48073a0f8d1
:10320000b830384b4ff40472c0f8c0302946c0e9da
:10321000275580f88c50c0f8a450c0f8b450c0f8be
:10322000bc50c0f8c800c0f84056c0f84456c0f8ba
:10323000485600f586600bf0bafb0020002104f52b
:10324000ca63c4f84c46c4f85056c4f85456c3e98f
:10325000020142f21073c4f890360223c4f8943687
:103260004ef66023c4f898364ff0ff33c4f8a83602
:103270004ff40073c4f8b8361b4b84f860562360d3
:103280001a4bc4f86856c4f8c436c4f86c56c4f86f
:103290007056c4f87c56c4f8805684f8845684f876
:1032a0008856c4f88c56c4f89c56c4f8a056c4f886
:1032b000a456c4f8ac56c4f8b456a4f8bc56c4f826
:1032c000c05604f6586005f0e2fb094ba4f8845f91
:1032d000c4f8c4363460306870bd00bf4046012079
:1032e0000600fffffc190308a4190308c01903080e
:1032f00068190308012a38b5044602d10b68236017
:1033000003e0022a03d0032a0dd0002038bd0c2090
:103310000d68fff74dff03460028f0d095e8070041
:1033200083e80700ebe700680028eed00c210bf0e3
:103330002cfbeae708b5024b1b685b68019308bdec
:10334000a00106082de9f04f994600239db01646ce
:10335000dde926b205468a46cde9033342b1d2e91a
:10336000011217a8cde90312189217930bf086faf1
:103370000024039b95f88c800593049b039406938b
:10338000b8f1000f0ed06ff06d0105a80bf0a9f891
:1033900005a80bf073fa03a80bf070fa20461db0d5
:1033a000bde8f08feb6e6f689847059b0446079366
:1033b000069b05225046aa490893cdf814800df0cb
:1033c000abf878b308225046a6490df0a5f848b3eb
hellow programming class